:1000000000308A00732900000A108A100A11820742
:10001000053409340A34063483166208FA0061088C
:10002000840083137A1883170008E5006408FA0037
:100030006308840083137A18831700086502031D80
:1000400038286208FA006108840083137A1883173D
:100050008008031D2E280030F80050286208FA009E
:100060006108E10A0319E20AE30A0319E40A0D2808
:100070006208FA006108840083136218831700087D
:10008000E5006408FA00630884008313641883178A
:100090000008650203184E28FF304F280130F80091
:1000A00083120034E73084008313000803196528A5
:1000B0000630F800F701F70B5B28F80B5A287B3065
:1000C000F700F70B6128800B58280034831686123E
:1000D000831286160C308316DF00FA30E700831295
:1000E00052208316DF0B6D288612831286128A1126
:1000F0000A12592A8730900003308316E300C83073
:10010000E700831252208316E30B7F2883128F01AE
:100110008E0164308316E700831252200F08FA0024
:100120000E08F7000F087A02031D8E287708831641
:10013000DF007A08E00006138312061704308316E6
:10014000E300FA30E700831252208316E30BA12864
:1001500083128F018E0164308316E70083125220D0
:100160000F08FA000E08F7000F087A02031DB028E6
:1001700077088316E1007A08E2000613831206135B
:10018000900183165F086102E3006208E4006008E2
:10019000031C600FE4026408263C0318DA28FF3AC7
:1001A000031DD6286308103C0318DA280130F80034
:1001B000DD28DD280030F800DD2883128A110A12BC
:1001C0006F2AF701F80183165F0803106018F7071C
:1001D000F70CF80CE018F707F70CF80C6019F707A4
:1001E000F70CF80CE019F707F70CF80C601AF70792
:1001F000F70CF80CE01AF707F70CF80C601BF70780
:10020000F70CF80CE01BF707F70CF80C83128A11B7
:100210000A12B82A22308316E3006430E400600832
:10022000033C031C18294630E5006008E600452918
:100230006008043C031920296008053C031D262999
:100240005230E5006008063CE60045296008FF3CA6
:10025000031932296008FE3C031932296008FD3C6D
:10026000031D38295230E5006009E600E60A4529F9
:100270006008FC3C031940296008FB3C031D45292C
:100280004630E50006306007E600E20166086202DB
:1002900003187129E1016308610203186F296408DA
:1002A000E70083125220F030831686008312220862
:1002B0000420F800860083166508463C0319672968
:1002C0000130831222070339A2006C298316013002
:1002D000831222020339A2008316E10A4B29E20AA3
:1002E000462983120034840183131F308305813033
:1002F00083169900A63098009030831298008316D8
:100300001F149F141F159F1107309C008312A0011A
:10031000A101A2013130A3003030A4002E30A5008D
:10032000A601A701A801A901AA01AB01AC01AD0179
:10033000AE01AF01B001B1013230B2003030B300D4
:100340002E30B400B501B601B701B801B901BA0148
:10035000BB01BC01BD01BE01BF01C0013530C10000
:100360003030C2002E30C300C401C501C601C70130
:10037000C801C901CA01CB01CC01CD01CE01CF0119
:100380003130D0003030D100D2002E30D300D40133
:10039000D501D601D701D801D901DA01DB01DC0191
:1003A000DD01DE017530DF006E30E0007230E1000B
:1003B0006530E2006330E3006F30E4006730E50051
:1003C0006E30E6006930E7007A30E8006530E90019
:1003D0006430EA002E30EB00EC01ED01733083163F
:1003E000B4007430B5006130B6007230B7007430BC
:1003F000B8002E30B900BA01BB01BC01BD016330A9
:10040000BE006130BF007030C0007430C100753074
:10041000C2007230C3006530C4002E30C500C60172
:10042000C7017330C8007430C9006F30CA00703023
:10043000CB002E30CC00CD01CE01CF01D001D101B7
:100440006630D2006130D3006B30D4006530D50007
:100450002E30D600D701D801D901DA01DB01F00135
:100460008312EE018C1E322AA03084008313840391
:10047000840A8C1E392A1A0880000D300002031DE0
:10048000382A80018316E201A030E100E401B43093
:10049000E30083120C20F808031D532A831606126A
:1004A00083120616542A322A081C102B6E08EF00FD
:1004B00066280819612A32308316E7008312522019
:1004C000592A0330F100FA308316E70083125220D4
:1004D000F10B632A83160612831206127A28780813
:1004E000F000F008031DD22A8316061283120616A6
:1004F0008818802A32308316E70083125220782A27
:100500000430F100C8308316E70083125220F10B4B
:10051000822A8316061283120612BE3084008313C9
:100520000030000403199A2A00080C1E952A99002D
:10053000840A902A8C1E9A2AA03084008313840394
:10054000840A8C1EA12A1A0880000D300002031DA7
:10055000A02A8001EE01EE1BB12A6E08043C031CA8
:10056000D12A6E088316DF000F30E0008312E128E5
:100570007808233EF800FA010318FA0A7808F10017
:100580007A08F2008316E201A030E1007208E4006C
:100590007108E30083120C20F8080319D12AEE0A2F
:1005A000AB2A042BD23084008313003000040319DB
:1005B000DF2A00080C1EDA2A9900840AD52A0A309C
:1005C0008316E70083125220F0010530EE008C1EE6
:1005D000E72AA030840083138403840A8C1EEE2A49
:1005E0001A0880000D300002031DED2A80018316D9
:1005F000E201A030E100E401D230E30083120C20DC
:10060000F8080319042BE72A6F086E02F10083161D
:10061000E00083120A218316061283120616542A5A
:10062000C830840083130030000403191D2B000818
:100630000C1E182B9900840A132B1030F100FA308D
:100640008316E70083125220F10B1F2B831606122C
:10065000831206126E09F100F10A71088316E00098
:0806600083120A21312A630014
:02400E00723FFF
:00000001FF
;PIC16F877A
;CRC=5C30  CREATED="26-Apr-14 20:33"
